{
  "address": "0x39b1314f35676F6Be6F27ae486FF8da7cbA1c617",
  "abi": [
    {
      "inputs": [
        {
          "internalType": "address",
          "name": "_rewardToken",
          "type": "address"
        }
      ],
      "stateMutability": "nonpayable",
      "type": "constructor"
    },
    {
      "inputs": [],
      "name": "CampaignExpired",
      "type": "error"
    },
    {
      "inputs": [],
      "name": "CampaignNotActive",
      "type": "error"
    },
    {
      "inputs": [],
      "name": "EnforcedPause",
      "type": "error"
    },
    {
      "inputs": [],
      "name": "ExpectedPause",
      "type": "error"
    },
    {
      "inputs": [],
      "name": "ExternalCallFailed",
      "type": "error"
    },
    {
      "inputs": [],
      "name": "InsufficientBurnAmount",
      "type": "error"
    },
    {
      "inputs": [],
      "name": "MaxRewardsReached",
      "type": "error"
    },
    {
      "inputs": [
        {
          "internalType": "address",
          "name": "owner",
          "type": "address"
        }
      ],
      "name": "OwnableInvalidOwner",
      "type": "error"
    },
    {
      "inputs": [
        {
          "internalType": "address",
          "name": "account",
          "type": "address"
        }
      ],
      "name": "OwnableUnauthorizedAccount",
      "type": "error"
    },
    {
      "inputs": [],
      "name": "ReentrancyGuardReentrantCall",
      "type": "error"
    },
    {
      "inputs": [
        {
          "internalType": "address",
          "name": "token",
          "type": "address"
        }
      ],
      "name": "SafeERC20FailedOperation",
      "type": "error"
    },
    {
      "anonymous": false,
      "inputs": [
        {
          "indexed": true,
          "internalType": "uint256",
          "name": "campaignId",
          "type": "uint256"
        },
        {
          "indexed": false,
          "internalType": "uint256",
          "name": "minBurnAmount",
          "type": "uint256"
        },
        {
          "indexed": false,
          "internalType": "uint256",
          "name": "endDate",
          "type": "uint256"
        },
        {
          "indexed": false,
          "internalType": "address",
          "name": "tokenAddress",
          "type": "address"
        },
        {
          "indexed": false,
          "internalType": "address",
          "name": "recipientAddress",
          "type": "address"
        }
      ],
      "name": "CampaignCreated",
      "type": "event"
    },
    {
      "anonymous": false,
      "inputs": [
        {
          "indexed": true,
          "internalType": "uint256",
          "name": "campaignId",
          "type": "uint256"
        }
      ],
      "name": "CampaignDeactivated",
      "type": "event"
    },
    {
      "anonymous": false,
      "inputs": [
        {
          "indexed": true,
          "internalType": "uint256",
          "name": "campaignId",
          "type": "uint256"
        }
      ],
      "name": "CampaignModified",
      "type": "event"
    },
    {
      "anonymous": false,
      "inputs": [
        {
          "indexed": true,
          "internalType": "address",
          "name": "previousOwner",
          "type": "address"
        },
        {
          "indexed": true,
          "internalType": "address",
          "name": "newOwner",
          "type": "address"
        }
      ],
      "name": "OwnershipTransferred",
      "type": "event"
    },
    {
      "anonymous": false,
      "inputs": [
        {
          "indexed": false,
          "internalType": "address",
          "name": "account",
          "type": "address"
        }
      ],
      "name": "Paused",
      "type": "event"
    },
    {
      "anonymous": false,
      "inputs": [
        {
          "indexed": true,
          "internalType": "address",
          "name": "oldToken",
          "type": "address"
        },
        {
          "indexed": true,
          "internalType": "address",
          "name": "newToken",
          "type": "address"
        }
      ],
      "name": "RewardTokenUpdated",
      "type": "event"
    },
    {
      "anonymous": false,
      "inputs": [
        {
          "indexed": true,
          "internalType": "uint256",
          "name": "campaignId",
          "type": "uint256"
        },
        {
          "indexed": true,
          "internalType": "address",
          "name": "user",
          "type": "address"
        },
        {
          "indexed": false,
          "internalType": "uint256",
          "name": "burnAmount",
          "type": "uint256"
        },
        {
          "indexed": false,
          "internalType": "bool",
          "name": "externalCallSuccess",
          "type": "bool"
        }
      ],
      "name": "RewardTriggered",
      "type": "event"
    },
    {
      "anonymous": false,
      "inputs": [
        {
          "indexed": true,
          "internalType": "address",
          "name": "token",
          "type": "address"
        },
        {
          "indexed": false,
          "internalType": "uint256",
          "name": "amount",
          "type": "uint256"
        }
      ],
      "name": "TokensRecovered",
      "type": "event"
    },
    {
      "anonymous": false,
      "inputs": [
        {
          "indexed": false,
          "internalType": "address",
          "name": "account",
          "type": "address"
        }
      ],
      "name": "Unpaused",
      "type": "event"
    },
    {
      "inputs": [
        {
          "internalType": "uint256",
          "name": "",
          "type": "uint256"
        }
      ],
      "name": "allCampaignIds",
      "outputs": [
        {
          "internalType": "uint256",
          "name": "",
          "type": "uint256"
        }
      ],
      "stateMutability": "view",
      "type": "function"
    },
    {
      "inputs": [
        {
          "internalType": "uint256",
          "name": "",
          "type": "uint256"
        }
      ],
      "name": "campaignIdToArrayIndex",
      "outputs": [
        {
          "internalType": "uint256",
          "name": "",
          "type": "uint256"
        }
      ],
      "stateMutability": "view",
      "type": "function"
    },
    {
      "inputs": [
        {
          "internalType": "uint256",
          "name": "",
          "type": "uint256"
        }
      ],
      "name": "campaigns",
      "outputs": [
        {
          "internalType": "uint256",
          "name": "minBurnAmount",
          "type": "uint256"
        },
        {
          "internalType": "uint256",
          "name": "endDate",
          "type": "uint256"
        },
        {
          "internalType": "uint256",
          "name": "maxRewards",
          "type": "uint256"
        },
        {
          "internalType": "uint256",
          "name": "rewardsIssued",
          "type": "uint256"
        },
        {
          "internalType": "address",
          "name": "targetContract",
          "type": "address"
        },
        {
          "internalType": "bytes",
          "name": "targetCalldata",
          "type": "bytes"
        },
        {
          "internalType": "bool",
          "name": "isActive",
          "type": "bool"
        },
        {
          "internalType": "uint256",
          "name": "createdAt",
          "type": "uint256"
        },
        {
          "internalType": "address",
          "name": "tokenAddress",
          "type": "address"
        },
        {
          "internalType": "address",
          "name": "recipientAddress",
          "type": "address"
        }
      ],
      "stateMutability": "view",
      "type": "function"
    },
    {
      "inputs": [
        {
          "internalType": "uint256",
          "name": "minBurnAmount",
          "type": "uint256"
        },
        {
          "internalType": "uint256",
          "name": "endDate",
          "type": "uint256"
        },
        {
          "internalType": "uint256",
          "name": "maxRewards",
          "type": "uint256"
        },
        {
          "internalType": "address",
          "name": "targetContract",
          "type": "address"
        },
        {
          "internalType": "bytes",
          "name": "targetCalldata",
          "type": "bytes"
        },
        {
          "internalType": "address",
          "name": "tokenAddress",
          "type": "address"
        },
        {
          "internalType": "address",
          "name": "recipientAddress",
          "type": "address"
        }
      ],
      "name": "createCampaign",
      "outputs": [],
      "stateMutability": "nonpayable",
      "type": "function"
    },
    {
      "inputs": [
        {
          "internalType": "uint256",
          "name": "campaignId",
          "type": "uint256"
        }
      ],
      "name": "deactivateCampaign",
      "outputs": [],
      "stateMutability": "nonpayable",
      "type": "function"
    },
    {
      "inputs": [
        {
          "internalType": "uint256",
          "name": "startIndex",
          "type": "uint256"
        },
        {
          "internalType": "uint256",
          "name": "endIndex",
          "type": "uint256"
        }
      ],
      "name": "getActiveCampaigns",
      "outputs": [
        {
          "internalType": "uint256[]",
          "name": "campaignIds",
          "type": "uint256[]"
        },
        {
          "components": [
            {
              "internalType": "uint256",
              "name": "minBurnAmount",
              "type": "uint256"
            },
            {
              "internalType": "uint256",
              "name": "endDate",
              "type": "uint256"
            },
            {
              "internalType": "uint256",
              "name": "maxRewards",
              "type": "uint256"
            },
            {
              "internalType": "uint256",
              "name": "rewardsIssued",
              "type": "uint256"
            },
            {
              "internalType": "address",
              "name": "targetContract",
              "type": "address"
            },
            {
              "internalType": "bytes",
              "name": "targetCalldata",
              "type": "bytes"
            },
            {
              "internalType": "bool",
              "name": "isActive",
              "type": "bool"
            },
            {
              "internalType": "uint256",
              "name": "createdAt",
              "type": "uint256"
            },
            {
              "internalType": "address",
              "name": "tokenAddress",
              "type": "address"
            },
            {
              "internalType": "address",
              "name": "recipientAddress",
              "type": "address"
            }
          ],
          "internalType": "struct RewardsMarket.Campaign[]",
          "name": "details",
          "type": "tuple[]"
        }
      ],
      "stateMutability": "view",
      "type": "function"
    },
    {
      "inputs": [
        {
          "internalType": "uint256",
          "name": "campaignId",
          "type": "uint256"
        }
      ],
      "name": "getCampaign",
      "outputs": [
        {
          "internalType": "uint256",
          "name": "minBurnAmount",
          "type": "uint256"
        },
        {
          "internalType": "uint256",
          "name": "endDate",
          "type": "uint256"
        },
        {
          "internalType": "uint256",
          "name": "maxRewards",
          "type": "uint256"
        },
        {
          "internalType": "uint256",
          "name": "rewardsIssued",
          "type": "uint256"
        },
        {
          "internalType": "address",
          "name": "targetContract",
          "type": "address"
        },
        {
          "internalType": "bytes",
          "name": "targetCalldata",
          "type": "bytes"
        },
        {
          "internalType": "bool",
          "name": "isActive",
          "type": "bool"
        },
        {
          "internalType": "uint256",
          "name": "createdAt",
          "type": "uint256"
        },
        {
          "internalType": "address",
          "name": "tokenAddress",
          "type": "address"
        },
        {
          "internalType": "address",
          "name": "recipientAddress",
          "type": "address"
        }
      ],
      "stateMutability": "view",
      "type": "function"
    },
    {
      "inputs": [
        {
          "internalType": "uint256",
          "name": "startIndex",
          "type": "uint256"
        },
        {
          "internalType": "uint256",
          "name": "endIndex",
          "type": "uint256"
        }
      ],
      "name": "getCampaignIds",
      "outputs": [
        {
          "internalType": "uint256[]",
          "name": "",
          "type": "uint256[]"
        }
      ],
      "stateMutability": "view",
      "type": "function"
    },
    {
      "inputs": [
        {
          "internalType": "uint256",
          "name": "startIndex",
          "type": "uint256"
        },
        {
          "internalType": "uint256",
          "name": "endIndex",
          "type": "uint256"
        }
      ],
      "name": "getInactiveCampaigns",
      "outputs": [
        {
          "internalType": "uint256[]",
          "name": "campaignIds",
          "type": "uint256[]"
        },
        {
          "components": [
            {
              "internalType": "uint256",
              "name": "minBurnAmount",
              "type": "uint256"
            },
            {
              "internalType": "uint256",
              "name": "endDate",
              "type": "uint256"
            },
            {
              "internalType": "uint256",
              "name": "maxRewards",
              "type": "uint256"
            },
            {
              "internalType": "uint256",
              "name": "rewardsIssued",
              "type": "uint256"
            },
            {
              "internalType": "address",
              "name": "targetContract",
              "type": "address"
            },
            {
              "internalType": "bytes",
              "name": "targetCalldata",
              "type": "bytes"
            },
            {
              "internalType": "bool",
              "name": "isActive",
              "type": "bool"
            },
            {
              "internalType": "uint256",
              "name": "createdAt",
              "type": "uint256"
            },
            {
              "internalType": "address",
              "name": "tokenAddress",
              "type": "address"
            },
            {
              "internalType": "address",
              "name": "recipientAddress",
              "type": "address"
            }
          ],
          "internalType": "struct RewardsMarket.Campaign[]",
          "name": "details",
          "type": "tuple[]"
        }
      ],
      "stateMutability": "view",
      "type": "function"
    },
    {
      "inputs": [],
      "name": "getTotalCampaigns",
      "outputs": [
        {
          "internalType": "uint256",
          "name": "",
          "type": "uint256"
        }
      ],
      "stateMutability": "view",
      "type": "function"
    },
    {
      "inputs": [
        {
          "internalType": "address",
          "name": "user",
          "type": "address"
        },
        {
          "internalType": "uint256",
          "name": "campaignId",
          "type": "uint256"
        }
      ],
      "name": "getUserParticipationCount",
      "outputs": [
        {
          "internalType": "uint256",
          "name": "",
          "type": "uint256"
        }
      ],
      "stateMutability": "view",
      "type": "function"
    },
    {
      "inputs": [
        {
          "internalType": "uint256",
          "name": "campaignId",
          "type": "uint256"
        },
        {
          "internalType": "uint256",
          "name": "minBurnAmount",
          "type": "uint256"
        },
        {
          "internalType": "uint256",
          "name": "endDate",
          "type": "uint256"
        },
        {
          "internalType": "uint256",
          "name": "maxRewards",
          "type": "uint256"
        },
        {
          "internalType": "address",
          "name": "targetContract",
          "type": "address"
        },
        {
          "internalType": "bytes",
          "name": "targetCalldata",
          "type": "bytes"
        },
        {
          "internalType": "address",
          "name": "tokenAddress",
          "type": "address"
        },
        {
          "internalType": "address",
          "name": "recipientAddress",
          "type": "address"
        }
      ],
      "name": "modifyCampaign",
      "outputs": [],
      "stateMutability": "nonpayable",
      "type": "function"
    },
    {
      "inputs": [],
      "name": "nextCampaignId",
      "outputs": [
        {
          "internalType": "uint256",
          "name": "",
          "type": "uint256"
        }
      ],
      "stateMutability": "view",
      "type": "function"
    },
    {
      "inputs": [],
      "name": "owner",
      "outputs": [
        {
          "internalType": "address",
          "name": "",
          "type": "address"
        }
      ],
      "stateMutability": "view",
      "type": "function"
    },
    {
      "inputs": [],
      "name": "pause",
      "outputs": [],
      "stateMutability": "nonpayable",
      "type": "function"
    },
    {
      "inputs": [],
      "name": "paused",
      "outputs": [
        {
          "internalType": "bool",
          "name": "",
          "type": "bool"
        }
      ],
      "stateMutability": "view",
      "type": "function"
    },
    {
      "inputs": [
        {
          "internalType": "contract IERC20",
          "name": "tokenAddress",
          "type": "address"
        },
        {
          "internalType": "address",
          "name": "to",
          "type": "address"
        },
        {
          "internalType": "uint256",
          "name": "amount",
          "type": "uint256"
        }
      ],
      "name": "recoverTokens",
      "outputs": [],
      "stateMutability": "nonpayable",
      "type": "function"
    },
    {
      "inputs": [],
      "name": "renounceOwnership",
      "outputs": [],
      "stateMutability": "nonpayable",
      "type": "function"
    },
    {
      "inputs": [],
      "name": "rewardToken",
      "outputs": [
        {
          "internalType": "contract RewardToken",
          "name": "",
          "type": "address"
        }
      ],
      "stateMutability": "view",
      "type": "function"
    },
    {
      "inputs": [
        {
          "internalType": "address",
          "name": "_newRewardToken",
          "type": "address"
        }
      ],
      "name": "setRewardToken",
      "outputs": [],
      "stateMutability": "nonpayable",
      "type": "function"
    },
    {
      "inputs": [
        {
          "internalType": "address",
          "name": "newOwner",
          "type": "address"
        }
      ],
      "name": "transferOwnership",
      "outputs": [],
      "stateMutability": "nonpayable",
      "type": "function"
    },
    {
      "inputs": [
        {
          "internalType": "uint256",
          "name": "campaignId",
          "type": "uint256"
        },
        {
          "internalType": "uint256",
          "name": "burnAmount",
          "type": "uint256"
        }
      ],
      "name": "triggerReward",
      "outputs": [],
      "stateMutability": "nonpayable",
      "type": "function"
    },
    {
      "inputs": [],
      "name": "unpause",
      "outputs": [],
      "stateMutability": "nonpayable",
      "type": "function"
    },
    {
      "inputs": [
        {
          "internalType": "address",
          "name": "",
          "type": "address"
        },
        {
          "internalType": "uint256",
          "name": "",
          "type": "uint256"
        }
      ],
      "name": "userParticipation",
      "outputs": [
        {
          "internalType": "uint256",
          "name": "",
          "type": "uint256"
        }
      ],
      "stateMutability": "view",
      "type": "function"
    }
  ],
  "transactionHash": "0x722a9f5cda206ac0eab9d48d4f65aaabaf443e9408789c1b4930afca151af30d",
  "args": [
    "0xD2f2386A1c8a4C6D3605c9343B948b12056BD774"
  ],
  "numDeployments": 1,
  "solcInputHash": "18973a7afcd155198ef73f38258aa7bb",
  "bytecode": "0x60806040523480156200001157600080fd5b5060405162002274380380620022748339810160408190526200003491620000fd565b33806200005b57604051631e4fbdf760e01b81526000600482015260240160405180910390fd5b6200006681620000ad565b50600180556002805460ff191690556001600160a01b03811615620000a65760028054610100600160a81b0319166101006001600160a01b038416021790555b506200012f565b600080546001600160a01b038381166001600160a01b0319831681178455604051919092169283917f8be0079c531659141344cd1fd0a4f28419497f9722a3daafe3b4186f6b6457e09190a35050565b6000602082840312156200011057600080fd5b81516001600160a01b03811681146200012857600080fd5b9392505050565b612135806200013f6000396000f3fe608060405234801561001057600080fd5b50600436106101585760003560e01c80638aee8127116100c3578063d34562781161007c578063d3456278146102f0578063d729f77b14610303578063efa78b3314610316578063f2fde38b14610329578063f31b3c4f1461033c578063f7c618c11461035c57600080fd5b80638aee8127146102395780638da5cb5b1461024c57806397f7f17414610271578063ade401d814610284578063b6531458146102a4578063c707ea3f146102c557600080fd5b80635f3e849f116101155780635f3e849f146101e75780636a870be6146101fa578063715018a61461020d5780637903a756146102155780637eca30fe1461021e5780638456cb591461023157600080fd5b8063141961bc1461015d57806316f43dd41461018f57806331c3bbb1146101a15780633f4ba83a146101b65780635598f8cc146101be5780635c975abb146101d1575b600080fd5b61017061016b36600461193a565b610374565b6040516101869a99989796959493929190611999565b60405180910390f35b6006545b604051908152602001610186565b6101b46101af366004611a61565b61046a565b005b6101b4610582565b6101706101cc36600461193a565b610594565b60025460ff166040519015158152602001610186565b6101b46101f5366004611b04565b6106b5565b6101b4610208366004611b45565b61072c565b6101b4610a86565b61019360045481565b6101b461022c36600461193a565b610a98565b6101b4610b3a565b6101b4610247366004611b67565b610b4a565b6000546001600160a01b03165b6040516001600160a01b039091168152602001610186565b61019361027f366004611b8b565b610bac565b610297610292366004611b45565b610bd7565b6040516101869190611bf3565b6102b76102b2366004611b45565b610ccf565b604051610186929190611c06565b6101936102d3366004611b8b565b600560209081526000928352604080842090915290825290205481565b6101936102fe36600461193a565b611047565b6101b4610311366004611d06565b611068565b6102b7610324366004611b45565b61128d565b6101b4610337366004611b67565b611600565b61019361034a36600461193a565b60076020526000908152604090205481565b6002546102599061010090046001600160a01b031681565b600360208190526000918252604090912080546001820154600283015493830154600484015460058501805494969395939492936001600160a01b03909216926103bd90611d9f565b80601f01602080910402602001604051908101604052809291908181526020018280546103e990611d9f565b80156104365780601f1061040b57610100808354040283529160200191610436565b820191906000526020600020905b81548152906001019060200180831161041957829003601f168201915b505050600684015460078501546008860154600990960154949560ff909216949093506001600160a01b039182169250168a565b61047261163e565b6000898152600360205260409020600681015460ff166104d95760405162461bcd60e51b815260206004820152601760248201527f43616d706169676e20646f6573206e6f7420657869737400000000000000000060448201526064015b60405180910390fd5b88815560018101889055600281018790556004810180546001600160a01b0319166001600160a01b03881617905560058101610516858783611e3f565b506008810180546001600160a01b038086166001600160a01b031992831617909255600983018054928516929091169190911790556040518a907f5b7669af918ca3f4bd3cbd26646bae0964c718ded8c46169bd586dd6fd9f277e90600090a250505050505050505050565b61058a61163e565b61059261166b565b565b6000818152600360208190526040822080546001820154600283015493830154600484015460068501546007860154600887015460098801546005890180548c9b8c9b8c9b8c9b60609b8d9b8c9b8c9b8c9b969a9599949893966001600160a01b039384169660ff909316949193908116921690859061061390611d9f565b80601f016020809104026020016040519081016040528092919081815260200182805461063f90611d9f565b801561068c5780601f106106615761010080835404028352916020019161068c565b820191906000526020600020905b81548152906001019060200180831161066f57829003601f168201915b505050505094509a509a509a509a509a509a509a509a509a509a50509193959799509193959799565b6106bd61163e565b6001600160a01b0382166107135760405162461bcd60e51b815260206004820152601e60248201527f43616e6e6f74207265636f76657220746f207a65726f2061646472657373000060448201526064016104d0565b6107276001600160a01b03841683836116bd565b505050565b61073461171c565b61073c611746565b6000828152600360205260409020600681015460ff1661076f5760405163219a945b60e11b815260040160405180910390fd5b6001810154158015906107855750806001015442115b156107a357604051638320b48360e01b815260040160405180910390fd5b6002810154158015906107be57508060020154816003015410155b156107dc57604051635681f00560e01b815260040160405180910390fd5b80548210156107fe5760405163f4c41e4760e01b815260040160405180910390fd5b60038101805490600061081083611f16565b9091555050336000908152600560209081526040808320868452909152812080549161083b83611f16565b909155505060088101546001600160a01b03166109135760025461010090046001600160a01b03166108a65760405162461bcd60e51b815260206004820152601460248201527314995dd85c99081d1bdad95b881b9bdd081cd95d60621b60448201526064016104d0565b60025460405163079cc67960e41b8152336004820152602481018490526101009091046001600160a01b0316906379cc679090604401600060405180830381600087803b1580156108f657600080fd5b505af115801561090a573d6000803e3d6000fd5b5050505061099b565b60098101546001600160a01b03166109785760405162461bcd60e51b815260206004820152602260248201527f526563697069656e74206e6f742073657420666f7220637573746f6d20746f6b60448201526132b760f11b60648201526084016104d0565b6009810154600882015461099b916001600160a01b03918216913391168561176a565b60048101546001906001600160a01b031615610a395760048201546040516001600160a01b03909116906109d3906005850190611f2f565b6000604051808303816000865af19150503d8060008114610a10576040519150601f19603f3d011682016040523d82523d6000602084013e610a15565b606091505b50508091505080610a395760405163350c20f160e01b815260040160405180910390fd5b604080518481528215156020820152339186917fcc92375c9d8a567195e0f4a6268691b2b90e0e66f989088e0b7b2f5f3508a95f910160405180910390a35050610a8260018055565b5050565b610a8e61163e565b61059260006117a9565b610aa061163e565b60008181526003602052604090206006015460ff16610af75760405162461bcd60e51b815260206004820152601360248201527243616d706169676e206e6f742061637469766560681b60448201526064016104d0565b600081815260036020526040808220600601805460ff191690555182917fa8ad368de07a46b4c9632fee456e1227f02e971f82939d68bd4696b2e378dfa791a250565b610b4261163e565b6105926117f9565b610b5261163e565b600280546001600160a01b03838116610100818102610100600160a81b031985161790945560405193909204169182907f906ff2422a6ffa134f2d7ccaffd446bc0c583a5cb6615749b4b2836942a5fea890600090a35050565b6001600160a01b03821660009081526005602090815260408083208484529091529020545b92915050565b6060818310610bf85760405162461bcd60e51b81526004016104d090611fa5565b600654821115610c1a5760405162461bcd60e51b81526004016104d090611fcc565b6000610c268484612003565b905060008167ffffffffffffffff811115610c4357610c43611dd9565b604051908082528060200260200182016040528015610c6c578160200160208202803683370190505b50905060005b82811015610cc6576006610c868288612016565b81548110610c9657610c96612029565b9060005260206000200154828281518110610cb357610cb3612029565b6020908102919091010152600101610c72565b50949350505050565b606080828410610cf15760405162461bcd60e51b81526004016104d090611fa5565b600654831115610d135760405162461bcd60e51b81526004016104d090611fcc565b6000610d1f8585612003565b90506000805b82811015610dc15760006006610d3b838a612016565b81548110610d4b57610d4b612029565b6000918252602080832090910154808352600390915260409091206006015490915060ff168015610da557506000818152600360205260409020600101541580610da5575060008181526003602052604090206001015442105b15610db85782610db481611f16565b9350505b50600101610d25565b508067ffffffffffffffff811115610ddb57610ddb611dd9565b604051908082528060200260200182016040528015610e04578160200160208202803683370190505b5093508067ffffffffffffffff811115610e2057610e20611dd9565b604051908082528060200260200182016040528015610e5957816020015b610e466118ca565b815260200190600190039081610e3e5790505b5092506000805b8381101561103c5760006006610e76838b612016565b81548110610e8657610e86612029565b60009182526020808320909101548083526003909152604090912060068101549192509060ff168015610ec8575060018101541580610ec85750428160010154115b156110325781888581518110610ee057610ee0612029565b6020908102919091018101919091526040805161014081018252835481526001840154928101929092526002830154908201526003820154606082015260048201546001600160a01b03166080820152600582018054839160a0840191610f4690611d9f565b80601f0160208091040260200160405190810160405280929190818152602001828054610f7290611d9f565b8015610fbf5780601f10610f9457610100808354040283529160200191610fbf565b820191906000526020600020905b815481529060010190602001808311610fa257829003601f168201915b5050509183525050600682015460ff16151560208201526007820154604082015260088201546001600160a01b039081166060830152600990920154909116608090910152875188908690811061101857611018612029565b6020026020010181905250838061102e90611f16565b9450505b5050600101610e60565b505050509250929050565b6006818154811061105757600080fd5b600091825260209091200154905081565b61107061163e565b611078611746565b600480546000918261108983611f16565b9190505590506040518061014001604052808a815260200189815260200188815260200160008152602001876001600160a01b0316815260200186868080601f0160208091040260200160405190810160405280939291908181526020018383808284376000920182905250938552505060016020808501829052426040808701919091526001600160a01b038a81166060808901919091528a82166080988901528987526003808552968390208951815593890151948401949094559087015160028301559186015193810193909355928401516004830180546001600160a01b031916919094161790925560a0830151909150600582019061118d908261203f565b5060c08201516006828101805460ff19169215159290921790915560e08301516007808401919091556101008401516008840180546001600160a01b03199081166001600160a01b039384161790915561012090950151600990940180549095169381169390931790935580546000858152602094855260408082208390556001830184559290527ff652222313e28459528d920b65115c16c04f3efc82aaedc97be59f3f377c0d3f0184905580518c81529283018b9052858216908301528316606082015281907f37323758a33aed97b5367a7bf83f761fe5a60c1af1dea93eb27fef67265413189060800160405180910390a2505050505050505050565b6060808284106112af5760405162461bcd60e51b81526004016104d090611fa5565b6006548311156112d15760405162461bcd60e51b81526004016104d090611fcc565b60006112dd8585612003565b90506000805b8281101561138257600060066112f9838a612016565b8154811061130957611309612029565b6000918252602080832090910154808352600390915260409091206006015490915060ff16158061136657506000818152600360205260409020600101541580159061136657506000818152600360205260409020600101544210155b15611379578261137581611f16565b9350505b506001016112e3565b508067ffffffffffffffff81111561139c5761139c611dd9565b6040519080825280602002602001820160405280156113c5578160200160208202803683370190505b5093508067ffffffffffffffff8111156113e1576113e1611dd9565b60405190808252806020026020018201604052801561141a57816020015b6114076118ca565b8152602001906001900390816113ff5790505b5092506000805b8381101561103c5760006006611437838b612016565b8154811061144757611447612029565b60009182526020808320909101548083526003909152604090912060068101549192509060ff16158061148c575060018101541580159061148c575042816001015411155b156115f657818885815181106114a4576114a4612029565b6020908102919091018101919091526040805161014081018252835481526001840154928101929092526002830154908201526003820154606082015260048201546001600160a01b03166080820152600582018054839160a084019161150a90611d9f565b80601f016020809104026020016040519081016040528092919081815260200182805461153690611d9f565b80156115835780601f1061155857610100808354040283529160200191611583565b820191906000526020600020905b81548152906001019060200180831161156657829003601f168201915b5050509183525050600682015460ff16151560208201526007820154604082015260088201546001600160a01b03908116606083015260099092015490911660809091015287518890869081106115dc576115dc612029565b602002602001018190525083806115f290611f16565b9450505b5050600101611421565b61160861163e565b6001600160a01b03811661163257604051631e4fbdf760e01b8152600060048201526024016104d0565b61163b816117a9565b50565b6000546001600160a01b031633146105925760405163118cdaa760e01b81523360048201526024016104d0565b611673611836565b6002805460ff191690557f5db9ee0a495bf2e6ff9c91a7834c1ba4fdd244a5e8aa4e537bd38aeae4b073aa335b6040516001600160a01b03909116815260200160405180910390a1565b6040516001600160a01b0383811660248301526044820183905261072791859182169063a9059cbb906064015b604051602081830303815290604052915060e01b6020820180516001600160e01b038381831617835250505050611859565b60026001540361173f57604051633ee5aeb560e01b815260040160405180910390fd5b6002600155565b60025460ff16156105925760405163d93c066560e01b815260040160405180910390fd5b6040516001600160a01b0384811660248301528381166044830152606482018390526117a39186918216906323b872dd906084016116ea565b50505050565b600080546001600160a01b038381166001600160a01b0319831681178455604051919092169283917f8be0079c531659141344cd1fd0a4f28419497f9722a3daafe3b4186f6b6457e09190a35050565b611801611746565b6002805460ff191660011790557f62e78cea01bee320cd4e420270b5ea74000d11b0c9f74754ebdbfc544b05a2586116a03390565b60025460ff1661059257604051638dfc202b60e01b815260040160405180910390fd5b600080602060008451602086016000885af18061187c576040513d6000823e3d81fd5b50506000513d915081156118945780600114156118a1565b6001600160a01b0384163b155b156117a357604051635274afe760e01b81526001600160a01b03851660048201526024016104d0565b6040518061014001604052806000815260200160008152602001600081526020016000815260200160006001600160a01b03168152602001606081526020016000151581526020016000815260200160006001600160a01b0316815260200160006001600160a01b031681525090565b60006020828403121561194c57600080fd5b5035919050565b6000815180845260005b818110156119795760208185018101518683018201520161195d565b506000602082860101526020601f19601f83011685010191505092915050565b60006101408c83528b60208401528a604084015289606084015260018060a01b03808a1660808501528160a08501526119d48285018a611953565b97151560c085015260e08401969096525050918316610100830152909116610120909101529695505050505050565b6001600160a01b038116811461163b57600080fd5b60008083601f840112611a2a57600080fd5b50813567ffffffffffffffff811115611a4257600080fd5b602083019150836020828501011115611a5a57600080fd5b9250929050565b60008060008060008060008060006101008a8c031215611a8057600080fd5b8935985060208a0135975060408a0135965060608a0135955060808a0135611aa781611a03565b945060a08a013567ffffffffffffffff811115611ac357600080fd5b611acf8c828d01611a18565b90955093505060c08a0135611ae381611a03565b915060e08a0135611af381611a03565b809150509295985092959850929598565b600080600060608486031215611b1957600080fd5b8335611b2481611a03565b92506020840135611b3481611a03565b929592945050506040919091013590565b60008060408385031215611b5857600080fd5b50508035926020909101359150565b600060208284031215611b7957600080fd5b8135611b8481611a03565b9392505050565b60008060408385031215611b9e57600080fd5b8235611ba981611a03565b946020939093013593505050565b60008151808452602080850194506020840160005b83811015611be857815187529582019590820190600101611bcc565b509495945050505050565b602081526000611b846020830184611bb7565b60006040808352611c1a6040840186611bb7565b6020848203818601528186518084528284019150828160051b85010183890160005b83811015611cf657601f1987840301855281518051845286810151878501528881015189850152606080820151908501526080808201516001600160a01b03169085015260a0808201516101408287018190529190611c9d83880182611953565b9250505060c080830151611cb48288018215159052565b505060e08281015190860152610100808301516001600160a01b0390811691870191909152610120928301511691909401529385019390850190600101611c3c565b50909a9950505050505050505050565b60008060008060008060008060e0898b031215611d2257600080fd5b8835975060208901359650604089013595506060890135611d4281611a03565b9450608089013567ffffffffffffffff811115611d5e57600080fd5b611d6a8b828c01611a18565b90955093505060a0890135611d7e81611a03565b915060c0890135611d8e81611a03565b809150509295985092959890939650565b600181811c90821680611db357607f821691505b602082108103611dd357634e487b7160e01b600052602260045260246000fd5b50919050565b634e487b7160e01b600052604160045260246000fd5b601f821115610727576000816000526020600020601f850160051c81016020861015611e185750805b601f850160051c820191505b81811015611e3757828155600101611e24565b505050505050565b67ffffffffffffffff831115611e5757611e57611dd9565b611e6b83611e658354611d9f565b83611def565b6000601f841160018114611e9f5760008515611e875750838201355b600019600387901b1c1916600186901b178355611ef9565b600083815260209020601f19861690835b82811015611ed05786850135825560209485019460019092019101611eb0565b5086821015611eed5760001960f88860031b161c19848701351681555b505060018560011b0183555b5050505050565b634e487b7160e01b600052601160045260246000fd5b600060018201611f2857611f28611f00565b5060010190565b6000808354611f3d81611d9f565b60018281168015611f555760018114611f6a57611f99565b60ff1984168752821515830287019450611f99565b8760005260208060002060005b85811015611f905781548a820152908401908201611f77565b50505082870194505b50929695505050505050565b6020808252600d908201526c496e76616c69642072616e676560981b604082015260600190565b60208082526017908201527f456e6420696e646578206f7574206f6620626f756e6473000000000000000000604082015260600190565b81810381811115610bd157610bd1611f00565b80820180821115610bd157610bd1611f00565b634e487b7160e01b600052603260045260246000fd5b815167ffffffffffffffff81111561205957612059611dd9565b61206d816120678454611d9f565b84611def565b602080601f8311600181146120a2576000841561208a5750858301515b600019600386901b1c1916600185901b178555611e37565b600085815260208120601f198616915b828110156120d1578886015182559484019460019091019084016120b2565b50858210156120ef5787850151600019600388901b60f8161c191681555b5050505050600190811b0190555056fea2646970667358221220be22e31bc263231d07bab3e90a755022ec5f9a220d95f69b530f3fff91262dc364736f6c63430008160033",
  "devdoc": {
    "details": "Uses ReentrancyGuard to prevent reentrancy attacks and Pausable for emergency stops",
    "errors": {
      "EnforcedPause()": [
        {
          "details": "The operation failed because the contract is paused."
        }
      ],
      "ExpectedPause()": [
        {
          "details": "The operation failed because the contract is not paused."
        }
      ],
      "OwnableInvalidOwner(address)": [
        {
          "details": "The owner is not a valid owner account. (eg. `address(0)`)"
        }
      ],
      "OwnableUnauthorizedAccount(address)": [
        {
          "details": "The caller account is not authorized to perform an operation."
        }
      ],
      "ReentrancyGuardReentrantCall()": [
        {
          "details": "Unauthorized reentrant call."
        }
      ],
      "SafeERC20FailedOperation(address)": [
        {
          "details": "An operation with an ERC-20 token failed."
        }
      ]
    },
    "events": {
      "Paused(address)": {
        "details": "Emitted when the pause is triggered by `account`."
      },
      "Unpaused(address)": {
        "details": "Emitted when the pause is lifted by `account`."
      }
    },
    "kind": "dev",
    "methods": {
      "createCampaign(uint256,uint256,uint256,address,bytes,address,address)": {
        "params": {
          "endDate": "Campaign end date (0 for no end date)",
          "maxRewards": "Maximum number of rewards (0 for unlimited)",
          "minBurnAmount": "Minimum tokens required to burn",
          "recipientAddress": "Where tokens go (address(0) means burn)",
          "targetCalldata": "Calldata for external call",
          "targetContract": "Contract to call (address(0) for no call)",
          "tokenAddress": "Token to be spent (address(0) means use rewardToken)"
        }
      },
      "deactivateCampaign(uint256)": {
        "params": {
          "campaignId": "ID of the campaign to deactivate"
        }
      },
      "getActiveCampaigns(uint256,uint256)": {
        "params": {
          "endIndex": "End index in the campaigns array (exclusive)",
          "startIndex": "Start index in the campaigns array"
        },
        "returns": {
          "campaignIds": "Array of campaign IDs that are active",
          "details": "Array of campaign details corresponding to the IDs"
        }
      },
      "getCampaign(uint256)": {
        "params": {
          "campaignId": "Campaign ID to query"
        }
      },
      "getCampaignIds(uint256,uint256)": {
        "params": {
          "endIndex": "End index in the campaigns array (exclusive)",
          "startIndex": "Start index in the campaigns array"
        },
        "returns": {
          "_0": "Array of campaign IDs"
        }
      },
      "getInactiveCampaigns(uint256,uint256)": {
        "params": {
          "endIndex": "End index in the campaigns array (exclusive)",
          "startIndex": "Start index in the campaigns array"
        },
        "returns": {
          "campaignIds": "Array of campaign IDs that are inactive",
          "details": "Array of campaign details corresponding to the IDs"
        }
      },
      "modifyCampaign(uint256,uint256,uint256,uint256,address,bytes,address,address)": {
        "params": {
          "campaignId": "ID of the campaign to modify",
          "endDate": "Campaign end date (0 for no end date)",
          "maxRewards": "Maximum number of rewards (0 for unlimited)",
          "minBurnAmount": "Minimum tokens required to burn",
          "recipientAddress": "Where tokens go (address(0) means burn)",
          "targetCalldata": "Calldata for external call",
          "targetContract": "Contract to call (address(0) for no call)",
          "tokenAddress": "Token to be spent (address(0) means use rewardToken)"
        }
      },
      "owner()": {
        "details": "Returns the address of the current owner."
      },
      "paused()": {
        "details": "Returns true if the contract is paused, and false otherwise."
      },
      "recoverTokens(address,address,uint256)": {
        "details": "Allows the owner to recover any ERC20 tokens mistakenly sent to the contract.",
        "params": {
          "amount": "The amount of tokens to recover.",
          "to": "The address to send the recovered tokens to.",
          "tokenAddress": "The address of the ERC20 token to recover."
        }
      },
      "renounceOwnership()": {
        "details": "Leaves the contract without owner. It will not be possible to call `onlyOwner` functions. Can only be called by the current owner. NOTE: Renouncing ownership will leave the contract without an owner, thereby disabling any functionality that is only available to the owner."
      },
      "setRewardToken(address)": {
        "params": {
          "_newRewardToken": "Address of the new reward token"
        }
      },
      "transferOwnership(address)": {
        "details": "Transfers ownership of the contract to a new account (`newOwner`). Can only be called by the current owner."
      },
      "triggerReward(uint256,uint256)": {
        "params": {
          "burnAmount": "Amount of tokens to burn",
          "campaignId": "ID of the campaign"
        }
      }
    },
    "title": "RewardsMarket",
    "version": 1
  },
  "userdoc": {
    "kind": "user",
    "methods": {
      "createCampaign(uint256,uint256,uint256,address,bytes,address,address)": {
        "notice": "Creates a new reward campaign"
      },
      "deactivateCampaign(uint256)": {
        "notice": "Deactivates a campaign"
      },
      "getActiveCampaigns(uint256,uint256)": {
        "notice": "Returns all active campaigns within the specified range"
      },
      "getCampaign(uint256)": {
        "notice": "Returns campaign details"
      },
      "getCampaignIds(uint256,uint256)": {
        "notice": "Returns an array of campaign IDs within the specified range"
      },
      "getInactiveCampaigns(uint256,uint256)": {
        "notice": "Returns all inactive campaigns within the specified range"
      },
      "getTotalCampaigns()": {
        "notice": "Returns total number of campaigns ever created"
      },
      "getUserParticipationCount(address,uint256)": {
        "notice": "Returns number of times a user has participated in a campaign"
      },
      "modifyCampaign(uint256,uint256,uint256,uint256,address,bytes,address,address)": {
        "notice": "Modifies an existing campaign"
      },
      "pause()": {
        "notice": "Emergency pause"
      },
      "recoverTokens(address,address,uint256)": {
        "notice": "Only callable by the contract owner."
      },
      "setRewardToken(address)": {
        "notice": "Updates the reward token address"
      },
      "triggerReward(uint256,uint256)": {
        "notice": "Triggers a reward by burning tokens"
      },
      "unpause()": {
        "notice": "Unpause the contract"
      }
    },
    "notice": "Manages reward campaigns where users can burn tokens to trigger rewards",
    "version": 1
  },
  "storageLayout": {
    "storage": [
      {
        "astId": 3128,
        "contract": "contracts/RewardsMarket.sol:RewardsMarket",
        "label": "_owner",
        "offset": 0,
        "slot": "0",
        "type": "t_address"
      },
      {
        "astId": 5185,
        "contract": "contracts/RewardsMarket.sol:RewardsMarket",
        "label": "_status",
        "offset": 0,
        "slot": "1",
        "type": "t_uint256"
      },
      {
        "astId": 5066,
        "contract": "contracts/RewardsMarket.sol:RewardsMarket",
        "label": "_paused",
        "offset": 0,
        "slot": "2",
        "type": "t_bool"
      },
      {
        "astId": 11730,
        "contract": "contracts/RewardsMarket.sol:RewardsMarket",
        "label": "rewardToken",
        "offset": 1,
        "slot": "2",
        "type": "t_contract(RewardToken)11687"
      },
      {
        "astId": 11735,
        "contract": "contracts/RewardsMarket.sol:RewardsMarket",
        "label": "campaigns",
        "offset": 0,
        "slot": "3",
        "type": "t_mapping(t_uint256,t_struct(Campaign)11727_storage)"
      },
      {
        "astId": 11737,
        "contract": "contracts/RewardsMarket.sol:RewardsMarket",
        "label": "nextCampaignId",
        "offset": 0,
        "slot": "4",
        "type": "t_uint256"
      },
      {
        "astId": 11743,
        "contract": "contracts/RewardsMarket.sol:RewardsMarket",
        "label": "userParticipation",
        "offset": 0,
        "slot": "5",
        "type": "t_mapping(t_address,t_mapping(t_uint256,t_uint256))"
      },
      {
        "astId": 11746,
        "contract": "contracts/RewardsMarket.sol:RewardsMarket",
        "label": "allCampaignIds",
        "offset": 0,
        "slot": "6",
        "type": "t_array(t_uint256)dyn_storage"
      },
      {
        "astId": 11750,
        "contract": "contracts/RewardsMarket.sol:RewardsMarket",
        "label": "campaignIdToArrayIndex",
        "offset": 0,
        "slot": "7",
        "type": "t_mapping(t_uint256,t_uint256)"
      }
    ],
    "types": {
      "t_address": {
        "encoding": "inplace",
        "label": "address",
        "numberOfBytes": "20"
      },
      "t_array(t_uint256)dyn_storage": {
        "base": "t_uint256",
        "encoding": "dynamic_array",
        "label": "uint256[]",
        "numberOfBytes": "32"
      },
      "t_bool": {
        "encoding": "inplace",
        "label": "bool",
        "numberOfBytes": "1"
      },
      "t_bytes_storage": {
        "encoding": "bytes",
        "label": "bytes",
        "numberOfBytes": "32"
      },
      "t_contract(RewardToken)11687": {
        "encoding": "inplace",
        "label": "contract RewardToken",
        "numberOfBytes": "20"
      },
      "t_mapping(t_address,t_mapping(t_uint256,t_uint256))": {
        "encoding": "mapping",
        "key": "t_address",
        "label": "mapping(address => mapping(uint256 => uint256))",
        "numberOfBytes": "32",
        "value": "t_mapping(t_uint256,t_uint256)"
      },
      "t_mapping(t_uint256,t_struct(Campaign)11727_storage)": {
        "encoding": "mapping",
        "key": "t_uint256",
        "label": "mapping(uint256 => struct RewardsMarket.Campaign)",
        "numberOfBytes": "32",
        "value": "t_struct(Campaign)11727_storage"
      },
      "t_mapping(t_uint256,t_uint256)": {
        "encoding": "mapping",
        "key": "t_uint256",
        "label": "mapping(uint256 => uint256)",
        "numberOfBytes": "32",
        "value": "t_uint256"
      },
      "t_struct(Campaign)11727_storage": {
        "encoding": "inplace",
        "label": "struct RewardsMarket.Campaign",
        "members": [
          {
            "astId": 11708,
            "contract": "contracts/RewardsMarket.sol:RewardsMarket",
            "label": "minBurnAmount",
            "offset": 0,
            "slot": "0",
            "type": "t_uint256"
          },
          {
            "astId": 11710,
            "contract": "contracts/RewardsMarket.sol:RewardsMarket",
            "label": "endDate",
            "offset": 0,
            "slot": "1",
            "type": "t_uint256"
          },
          {
            "astId": 11712,
            "contract": "contracts/RewardsMarket.sol:RewardsMarket",
            "label": "maxRewards",
            "offset": 0,
            "slot": "2",
            "type": "t_uint256"
          },
          {
            "astId": 11714,
            "contract": "contracts/RewardsMarket.sol:RewardsMarket",
            "label": "rewardsIssued",
            "offset": 0,
            "slot": "3",
            "type": "t_uint256"
          },
          {
            "astId": 11716,
            "contract": "contracts/RewardsMarket.sol:RewardsMarket",
            "label": "targetContract",
            "offset": 0,
            "slot": "4",
            "type": "t_address"
          },
          {
            "astId": 11718,
            "contract": "contracts/RewardsMarket.sol:RewardsMarket",
            "label": "targetCalldata",
            "offset": 0,
            "slot": "5",
            "type": "t_bytes_storage"
          },
          {
            "astId": 11720,
            "contract": "contracts/RewardsMarket.sol:RewardsMarket",
            "label": "isActive",
            "offset": 0,
            "slot": "6",
            "type": "t_bool"
          },
          {
            "astId": 11722,
            "contract": "contracts/RewardsMarket.sol:RewardsMarket",
            "label": "createdAt",
            "offset": 0,
            "slot": "7",
            "type": "t_uint256"
          },
          {
            "astId": 11724,
            "contract": "contracts/RewardsMarket.sol:RewardsMarket",
            "label": "tokenAddress",
            "offset": 0,
            "slot": "8",
            "type": "t_address"
          },
          {
            "astId": 11726,
            "contract": "contracts/RewardsMarket.sol:RewardsMarket",
            "label": "recipientAddress",
            "offset": 0,
            "slot": "9",
            "type": "t_address"
          }
        ],
        "numberOfBytes": "320"
      },
      "t_uint256": {
        "encoding": "inplace",
        "label": "uint256",
        "numberOfBytes": "32"
      }
    }
  }
}