{
  "address": "0xB8b9c3951da8196e1260D6Aaf41dCA97bBE08441",
  "abi": [
    {
      "inputs": [
        {
          "internalType": "address",
          "name": "_rewardToken",
          "type": "address"
        }
      ],
      "stateMutability": "nonpayable",
      "type": "constructor"
    },
    {
      "inputs": [],
      "name": "EnforcedPause",
      "type": "error"
    },
    {
      "inputs": [],
      "name": "ExpectedPause",
      "type": "error"
    },
    {
      "inputs": [
        {
          "internalType": "address",
          "name": "owner",
          "type": "address"
        }
      ],
      "name": "OwnableInvalidOwner",
      "type": "error"
    },
    {
      "inputs": [
        {
          "internalType": "address",
          "name": "account",
          "type": "address"
        }
      ],
      "name": "OwnableUnauthorizedAccount",
      "type": "error"
    },
    {
      "inputs": [],
      "name": "ReentrancyGuardReentrantCall",
      "type": "error"
    },
    {
      "inputs": [
        {
          "internalType": "address",
          "name": "token",
          "type": "address"
        }
      ],
      "name": "SafeERC20FailedOperation",
      "type": "error"
    },
    {
      "anonymous": false,
      "inputs": [
        {
          "indexed": true,
          "internalType": "address",
          "name": "user",
          "type": "address"
        },
        {
          "indexed": true,
          "internalType": "uint256",
          "name": "lockId",
          "type": "uint256"
        },
        {
          "indexed": false,
          "internalType": "uint256",
          "name": "amount",
          "type": "uint256"
        },
        {
          "indexed": false,
          "internalType": "uint256",
          "name": "lockPeriod",
          "type": "uint256"
        },
        {
          "indexed": false,
          "internalType": "uint256",
          "name": "unlockTime",
          "type": "uint256"
        },
        {
          "indexed": false,
          "internalType": "uint256",
          "name": "poolId",
          "type": "uint256"
        }
      ],
      "name": "Locked",
      "type": "event"
    },
    {
      "anonymous": false,
      "inputs": [
        {
          "indexed": true,
          "internalType": "address",
          "name": "previousOwner",
          "type": "address"
        },
        {
          "indexed": true,
          "internalType": "address",
          "name": "newOwner",
          "type": "address"
        }
      ],
      "name": "OwnershipTransferred",
      "type": "event"
    },
    {
      "anonymous": false,
      "inputs": [
        {
          "indexed": false,
          "internalType": "address",
          "name": "account",
          "type": "address"
        }
      ],
      "name": "Paused",
      "type": "event"
    },
    {
      "anonymous": false,
      "inputs": [
        {
          "indexed": true,
          "internalType": "uint256",
          "name": "poolId",
          "type": "uint256"
        },
        {
          "indexed": true,
          "internalType": "address",
          "name": "stakingToken",
          "type": "address"
        }
      ],
      "name": "PoolAdded",
      "type": "event"
    },
    {
      "anonymous": false,
      "inputs": [
        {
          "indexed": true,
          "internalType": "uint256",
          "name": "poolId",
          "type": "uint256"
        },
        {
          "indexed": false,
          "internalType": "bool",
          "name": "isActive",
          "type": "bool"
        }
      ],
      "name": "PoolStatusUpdated",
      "type": "event"
    },
    {
      "anonymous": false,
      "inputs": [
        {
          "indexed": true,
          "internalType": "uint256",
          "name": "poolId",
          "type": "uint256"
        },
        {
          "indexed": false,
          "internalType": "uint256[]",
          "name": "newRewardRates",
          "type": "uint256[]"
        }
      ],
      "name": "RewardRatesUpdated",
      "type": "event"
    },
    {
      "anonymous": false,
      "inputs": [
        {
          "indexed": true,
          "internalType": "address",
          "name": "user",
          "type": "address"
        },
        {
          "indexed": true,
          "internalType": "uint256",
          "name": "poolId",
          "type": "uint256"
        },
        {
          "indexed": false,
          "internalType": "uint256",
          "name": "amount",
          "type": "uint256"
        }
      ],
      "name": "RewardsClaimed",
      "type": "event"
    },
    {
      "anonymous": false,
      "inputs": [
        {
          "indexed": true,
          "internalType": "address",
          "name": "user",
          "type": "address"
        },
        {
          "indexed": true,
          "internalType": "uint256",
          "name": "poolId",
          "type": "uint256"
        },
        {
          "indexed": false,
          "internalType": "uint256",
          "name": "amount",
          "type": "uint256"
        },
        {
          "indexed": false,
          "internalType": "uint256",
          "name": "lockPeriod",
          "type": "uint256"
        }
      ],
      "name": "Staked",
      "type": "event"
    },
    {
      "anonymous": false,
      "inputs": [
        {
          "indexed": true,
          "internalType": "address",
          "name": "user",
          "type": "address"
        },
        {
          "indexed": true,
          "internalType": "uint256",
          "name": "lockId",
          "type": "uint256"
        },
        {
          "indexed": false,
          "internalType": "uint256",
          "name": "amount",
          "type": "uint256"
        },
        {
          "indexed": false,
          "internalType": "uint256",
          "name": "poolId",
          "type": "uint256"
        }
      ],
      "name": "Unlocked",
      "type": "event"
    },
    {
      "anonymous": false,
      "inputs": [
        {
          "indexed": false,
          "internalType": "address",
          "name": "account",
          "type": "address"
        }
      ],
      "name": "Unpaused",
      "type": "event"
    },
    {
      "anonymous": false,
      "inputs": [
        {
          "indexed": true,
          "internalType": "address",
          "name": "user",
          "type": "address"
        },
        {
          "indexed": true,
          "internalType": "uint256",
          "name": "poolId",
          "type": "uint256"
        },
        {
          "indexed": false,
          "internalType": "uint256",
          "name": "amount",
          "type": "uint256"
        },
        {
          "indexed": false,
          "internalType": "uint256",
          "name": "reward",
          "type": "uint256"
        }
      ],
      "name": "Unstaked",
      "type": "event"
    },
    {
      "inputs": [
        {
          "internalType": "contract IERC20",
          "name": "_stakingToken",
          "type": "address"
        },
        {
          "internalType": "uint256[]",
          "name": "_lockPeriods",
          "type": "uint256[]"
        },
        {
          "internalType": "uint256[]",
          "name": "_rewardRates",
          "type": "uint256[]"
        }
      ],
      "name": "addPool",
      "outputs": [],
      "stateMutability": "nonpayable",
      "type": "function"
    },
    {
      "inputs": [
        {
          "internalType": "address",
          "name": "user",
          "type": "address"
        },
        {
          "internalType": "uint256",
          "name": "lockId",
          "type": "uint256"
        }
      ],
      "name": "calculateRewards",
      "outputs": [
        {
          "internalType": "uint256",
          "name": "",
          "type": "uint256"
        }
      ],
      "stateMutability": "view",
      "type": "function"
    },
    {
      "inputs": [
        {
          "internalType": "uint256",
          "name": "poolId",
          "type": "uint256"
        },
        {
          "internalType": "uint256",
          "name": "lockId",
          "type": "uint256"
        }
      ],
      "name": "claimRewards",
      "outputs": [],
      "stateMutability": "nonpayable",
      "type": "function"
    },
    {
      "inputs": [],
      "name": "emergencyUnlockAll",
      "outputs": [],
      "stateMutability": "nonpayable",
      "type": "function"
    },
    {
      "inputs": [
        {
          "internalType": "address",
          "name": "user",
          "type": "address"
        }
      ],
      "name": "getActiveStakedBalance",
      "outputs": [
        {
          "internalType": "uint256",
          "name": "totalStaked",
          "type": "uint256"
        }
      ],
      "stateMutability": "view",
      "type": "function"
    },
    {
      "inputs": [
        {
          "internalType": "address",
          "name": "user",
          "type": "address"
        }
      ],
      "name": "getLifetimeRewards",
      "outputs": [
        {
          "internalType": "uint256",
          "name": "",
          "type": "uint256"
        }
      ],
      "stateMutability": "view",
      "type": "function"
    },
    {
      "inputs": [
        {
          "internalType": "uint256",
          "name": "poolId",
          "type": "uint256"
        }
      ],
      "name": "getLockedUsersByPool",
      "outputs": [
        {
          "internalType": "address[]",
          "name": "",
          "type": "address[]"
        }
      ],
      "stateMutability": "view",
      "type": "function"
    },
    {
      "inputs": [],
      "name": "getPools",
      "outputs": [
        {
          "components": [
            {
              "internalType": "uint256",
              "name": "poolId",
              "type": "uint256"
            },
            {
              "internalType": "contract IERC20",
              "name": "stakingToken",
              "type": "address"
            },
            {
              "internalType": "uint256[]",
              "name": "lockPeriods",
              "type": "uint256[]"
            },
            {
              "internalType": "uint256[]",
              "name": "rewardRates",
              "type": "uint256[]"
            },
            {
              "internalType": "bool",
              "name": "isActive",
              "type": "bool"
            }
          ],
          "internalType": "struct StakingVault.Pool[]",
          "name": "",
          "type": "tuple[]"
        }
      ],
      "stateMutability": "view",
      "type": "function"
    },
    {
      "inputs": [
        {
          "internalType": "uint256",
          "name": "poolId",
          "type": "uint256"
        }
      ],
      "name": "getStakingAmountByPool",
      "outputs": [
        {
          "internalType": "uint256",
          "name": "",
          "type": "uint256"
        }
      ],
      "stateMutability": "view",
      "type": "function"
    },
    {
      "inputs": [],
      "name": "getTotalLockedUsers",
      "outputs": [
        {
          "internalType": "uint256",
          "name": "",
          "type": "uint256"
        }
      ],
      "stateMutability": "view",
      "type": "function"
    },
    {
      "inputs": [],
      "name": "getTotalStakedAmount",
      "outputs": [
        {
          "internalType": "uint256",
          "name": "",
          "type": "uint256"
        }
      ],
      "stateMutability": "view",
      "type": "function"
    },
    {
      "inputs": [
        {
          "internalType": "address",
          "name": "user",
          "type": "address"
        }
      ],
      "name": "getUserLocks",
      "outputs": [
        {
          "components": [
            {
              "internalType": "uint256",
              "name": "lockId",
              "type": "uint256"
            },
            {
              "internalType": "uint256",
              "name": "amount",
              "type": "uint256"
            },
            {
              "internalType": "uint256",
              "name": "lockPeriod",
              "type": "uint256"
            },
            {
              "internalType": "uint256",
              "name": "unlockTime",
              "type": "uint256"
            },
            {
              "internalType": "uint256",
              "name": "lastClaimTime",
              "type": "uint256"
            },
            {
              "internalType": "uint256",
              "name": "poolId",
              "type": "uint256"
            },
            {
              "internalType": "bool",
              "name": "isLocked",
              "type": "bool"
            }
          ],
          "internalType": "struct StakingVault.LockInfo[]",
          "name": "",
          "type": "tuple[]"
        }
      ],
      "stateMutability": "view",
      "type": "function"
    },
    {
      "inputs": [
        {
          "internalType": "address",
          "name": "",
          "type": "address"
        }
      ],
      "name": "lifetimeRewards",
      "outputs": [
        {
          "internalType": "uint256",
          "name": "",
          "type": "uint256"
        }
      ],
      "stateMutability": "view",
      "type": "function"
    },
    {
      "inputs": [
        {
          "internalType": "uint256",
          "name": "",
          "type": "uint256"
        }
      ],
      "name": "lockedUsers",
      "outputs": [
        {
          "internalType": "address",
          "name": "",
          "type": "address"
        }
      ],
      "stateMutability": "view",
      "type": "function"
    },
    {
      "inputs": [],
      "name": "owner",
      "outputs": [
        {
          "internalType": "address",
          "name": "",
          "type": "address"
        }
      ],
      "stateMutability": "view",
      "type": "function"
    },
    {
      "inputs": [],
      "name": "pause",
      "outputs": [],
      "stateMutability": "nonpayable",
      "type": "function"
    },
    {
      "inputs": [],
      "name": "paused",
      "outputs": [
        {
          "internalType": "bool",
          "name": "",
          "type": "bool"
        }
      ],
      "stateMutability": "view",
      "type": "function"
    },
    {
      "inputs": [
        {
          "internalType": "uint256",
          "name": "",
          "type": "uint256"
        }
      ],
      "name": "pools",
      "outputs": [
        {
          "internalType": "uint256",
          "name": "poolId",
          "type": "uint256"
        },
        {
          "internalType": "contract IERC20",
          "name": "stakingToken",
          "type": "address"
        },
        {
          "internalType": "bool",
          "name": "isActive",
          "type": "bool"
        }
      ],
      "stateMutability": "view",
      "type": "function"
    },
    {
      "inputs": [
        {
          "internalType": "contract IERC20",
          "name": "tokenAddress",
          "type": "address"
        },
        {
          "internalType": "address",
          "name": "to",
          "type": "address"
        },
        {
          "internalType": "uint256",
          "name": "amount",
          "type": "uint256"
        }
      ],
      "name": "recoverTokens",
      "outputs": [],
      "stateMutability": "nonpayable",
      "type": "function"
    },
    {
      "inputs": [],
      "name": "renounceOwnership",
      "outputs": [],
      "stateMutability": "nonpayable",
      "type": "function"
    },
    {
      "inputs": [],
      "name": "rewardToken",
      "outputs": [
        {
          "internalType": "contract RewardToken",
          "name": "",
          "type": "address"
        }
      ],
      "stateMutability": "view",
      "type": "function"
    },
    {
      "inputs": [
        {
          "internalType": "uint256",
          "name": "poolId",
          "type": "uint256"
        },
        {
          "internalType": "bool",
          "name": "isActive",
          "type": "bool"
        }
      ],
      "name": "setPoolStatus",
      "outputs": [],
      "stateMutability": "nonpayable",
      "type": "function"
    },
    {
      "inputs": [
        {
          "internalType": "address",
          "name": "_rewardToken",
          "type": "address"
        }
      ],
      "name": "setRewardToken",
      "outputs": [],
      "stateMutability": "nonpayable",
      "type": "function"
    },
    {
      "inputs": [
        {
          "internalType": "uint256",
          "name": "poolId",
          "type": "uint256"
        },
        {
          "internalType": "uint256",
          "name": "_amount",
          "type": "uint256"
        },
        {
          "internalType": "uint256",
          "name": "_lockPeriod",
          "type": "uint256"
        }
      ],
      "name": "stake",
      "outputs": [],
      "stateMutability": "nonpayable",
      "type": "function"
    },
    {
      "inputs": [
        {
          "internalType": "address",
          "name": "newOwner",
          "type": "address"
        }
      ],
      "name": "transferOwnership",
      "outputs": [],
      "stateMutability": "nonpayable",
      "type": "function"
    },
    {
      "inputs": [],
      "name": "unpause",
      "outputs": [],
      "stateMutability": "nonpayable",
      "type": "function"
    },
    {
      "inputs": [
        {
          "internalType": "uint256",
          "name": "poolId",
          "type": "uint256"
        },
        {
          "internalType": "uint256",
          "name": "lockId",
          "type": "uint256"
        }
      ],
      "name": "unstake",
      "outputs": [],
      "stateMutability": "nonpayable",
      "type": "function"
    },
    {
      "inputs": [
        {
          "internalType": "uint256",
          "name": "poolId",
          "type": "uint256"
        },
        {
          "internalType": "uint256[]",
          "name": "newRewardRates",
          "type": "uint256[]"
        }
      ],
      "name": "updateRewardRates",
      "outputs": [],
      "stateMutability": "nonpayable",
      "type": "function"
    },
    {
      "inputs": [
        {
          "internalType": "address",
          "name": "",
          "type": "address"
        },
        {
          "internalType": "uint256",
          "name": "",
          "type": "uint256"
        }
      ],
      "name": "userLocks",
      "outputs": [
        {
          "internalType": "uint256",
          "name": "lockId",
          "type": "uint256"
        },
        {
          "internalType": "uint256",
          "name": "amount",
          "type": "uint256"
        },
        {
          "internalType": "uint256",
          "name": "lockPeriod",
          "type": "uint256"
        },
        {
          "internalType": "uint256",
          "name": "unlockTime",
          "type": "uint256"
        },
        {
          "internalType": "uint256",
          "name": "lastClaimTime",
          "type": "uint256"
        },
        {
          "internalType": "uint256",
          "name": "poolId",
          "type": "uint256"
        },
        {
          "internalType": "bool",
          "name": "isLocked",
          "type": "bool"
        }
      ],
      "stateMutability": "view",
      "type": "function"
    }
  ],
  "transactionHash": "0x5036a33542c5e27aeb4eacc5bb09be987d22c5d3873f0d5b946d306c454f2492",
  "args": [
    "0x5868D50f148EE42396CFe651e74ffF5dcdcc2A2a"
  ],
  "numDeployments": 1,
  "solcInputHash": "18973a7afcd155198ef73f38258aa7bb",
  "bytecode": "0x60806040523480156200001157600080fd5b5060405162002ce638038062002ce68339810160408190526200003491620000eb565b33806200005b57604051631e4fbdf760e01b81526000600482015260240160405180910390fd5b62000066816200009b565b50600180556002805460ff19169055600480546001600160a01b0319166001600160a01b03929092169190911790556200011d565b600080546001600160a01b038381166001600160a01b0319831681178455604051919092169283917f8be0079c531659141344cd1fd0a4f28419497f9722a3daafe3b4186f6b6457e09190a35050565b600060208284031215620000fe57600080fd5b81516001600160a01b03811681146200011657600080fd5b9392505050565b612bb9806200012d6000396000f3fe608060405234801561001057600080fd5b50600436106101cf5760003560e01c80638456cb5911610104578063ac4afa38116100a2578063e20cc07911610071578063e20cc0791461043d578063efea2d5c14610445578063f2fde38b14610458578063f7c618c11461046b57600080fd5b8063ac4afa38146103cc578063b7d6687114610404578063bbcaf3fe14610417578063beb8314c1461042a57600080fd5b80639361983c116100de5780639361983c146103495780639e2c8a5b1461035c578063a638f2e21461036f578063aa33fedb1461038257600080fd5b80638456cb59146103095780638aee8127146103115780638da5cb5b1461032457600080fd5b8063594dd432116101715780635f3e849f1161014b5780635f3e849f146102b0578063673a2a1f146102c3578063715018a6146102d85780637d3f0e7d146102e057600080fd5b8063594dd432146102745780635c975abb146102875780635e9020151461029d57600080fd5b806338adb6f0116101ad57806338adb6f01461023a5780633f4ba83a1461024257806342b303511461024c578063483984541461026c57600080fd5b806309dd4cf7146101d45780631d336d62146101fa57806323a35de91461021a575b600080fd5b6101e76101e23660046125cc565b61047e565b6040519081526020015b60405180910390f35b6101e76102083660046125cc565b60066020526000908152604090205481565b61022d6102283660046125cc565b61050e565b6040516101f191906125f0565b6101e76105c8565b61024a610721565b005b61025f61025a366004612674565b610733565b6040516101f1919061268d565b6007546101e7565b61024a6102823660046126da565b610a0d565b60025460ff1660405190151581526020016101f1565b6101e76102ab366004612674565b610bbf565b61024a6102be3660046126fc565b610d64565b6102cb610ddb565b6040516101f19190612779565b61024a610f10565b6101e76102ee3660046125cc565b6001600160a01b031660009081526006602052604090205490565b61024a610f22565b61024a61031f3660046125cc565b610f32565b6000546001600160a01b03165b6040516001600160a01b0390911681526020016101f1565b61024a610357366004612845565b610f5c565b61024a61036a3660046126da565b61108b565b61024a61037d36600461290f565b611381565b61039561039036600461293b565b6115b7565b604080519788526020880196909652948601939093526060850191909152608084015260a0830152151560c082015260e0016101f1565b6103df6103da366004612674565b611614565b604080519384526001600160a01b0390921660208401521515908201526060016101f1565b610331610412366004612674565b611656565b61024a610425366004612967565b611680565b6101e761043836600461293b565b61174b565b61024a6118cc565b61024a6104533660046129e1565b611a2d565b61024a6104663660046125cc565b611c54565b600454610331906001600160a01b031681565b6001600160a01b0381166000908152600560205260408120815b81548110156105075760008282815481106104b5576104b5612a64565b90600052602060002090600702016001015411156104ff578181815481106104df576104df612a64565b906000526020600020906007020160010154836104fc9190612a90565b92505b600101610498565b5050919050565b6001600160a01b0381166000908152600560209081526040808320805482518185028101850190935280835260609492939192909184015b828210156105bd5760008481526020908190206040805160e0810182526007860290920180548352600180820154848601526002820154928401929092526003810154606084015260048101546080840152600581015460a08401526006015460ff16151560c08301529083529092019101610546565b505050509050919050565b600080805b60075481101561071b57600060056000600784815481106105f0576105f0612a64565b60009182526020808320909101546001600160a01b031683528281019390935260409182018120805483518186028101860190945280845292939092919084015b828210156106a85760008481526020908190206040805160e0810182526007860290920180548352600180820154848601526002820154928401929092526003810154606084015260048101546080840152600581015460a08401526006015460ff16151560c08301529083529092019101610631565b50505050905060005b8151811015610711578181815181106106cc576106cc612a64565b602002602001015160c0015115610709578181815181106106ef576106ef612a64565b602002602001015160200151846107069190612a90565b93505b6001016106b1565b50506001016105cd565b50919050565b610729611c8f565b610731611cbc565b565b60035460609082106107605760405162461bcd60e51b815260040161075790612aa3565b60405180910390fd5b60075460009067ffffffffffffffff81111561077e5761077e61282f565b6040519080825280602002602001820160405280156107a7578160200160208202803683370190505b5090506000805b60075481101561096557600060056000600784815481106107d1576107d1612a64565b60009182526020808320909101546001600160a01b031683528281019390935260409182018120805483518186028101860190945280845292939092919084015b828210156108895760008481526020908190206040805160e0810182526007860290920180548352600180820154848601526002820154928401929092526003810154606084015260048101546080840152600581015460a08401526006015460ff16151560c08301529083529092019101610812565b50505050905060005b815181101561095b57868282815181106108ae576108ae612a64565b602002602001015160a001511480156108e157508181815181106108d4576108d4612a64565b602002602001015160c001515b1561095357600783815481106108f9576108f9612a64565b9060005260206000200160009054906101000a90046001600160a01b031685858151811061092957610929612a64565b6001600160a01b03909216602092830291909101909101528361094b81612acc565b94505061095b565b600101610892565b50506001016107ae565b5060008167ffffffffffffffff8111156109815761098161282f565b6040519080825280602002602001820160405280156109aa578160200160208202803683370190505b50905060005b82811015610a04578381815181106109ca576109ca612a64565b60200260200101518282815181106109e4576109e4612a64565b6001600160a01b03909216602092830291909101909101526001016109b0565b50949350505050565b6003548210610a2e5760405162461bcd60e51b815260040161075790612aa3565b336000908152600560205260409020548110610a5c5760405162461bcd60e51b815260040161075790612ae5565b6000610a68338361174b565b905060008111610ab15760405162461bcd60e51b81526020600482015260146024820152734e6f207265776172647320617661696c61626c6560601b6044820152606401610757565b600480546040516340c10f1960e01b81523392810192909252602482018390526001600160a01b0316906340c10f1990604401600060405180830381600087803b158015610afe57600080fd5b505af1158015610b12573d6000803e3d6000fd5b50503360009081526006602052604081208054859450909250610b36908490612a90565b9091555050336000908152600560205260408120805484908110610b5c57610b5c612a64565b9060005260206000209060070201905042816004018190555083336001600160a01b03167fdacbdde355ba930696a362ea6738feb9f8bd52dfb3d81947558fd3217e23e32584604051610bb191815260200190565b60405180910390a350505050565b6003546000908210610be35760405162461bcd60e51b815260040161075790612aa3565b6000805b600754811015610d5d5760006005600060078481548110610c0a57610c0a612a64565b60009182526020808320909101546001600160a01b031683528281019390935260409182018120805483518186028101860190945280845292939092919084015b82821015610cc25760008481526020908190206040805160e0810182526007860290920180548352600180820154848601526002820154928401929092526003810154606084015260048101546080840152600581015460a08401526006015460ff16151560c08301529083529092019101610c4b565b50505050905060005b8151811015610d535785828281518110610ce757610ce7612a64565b602002602001015160a00151148015610d1a5750818181518110610d0d57610d0d612a64565b602002602001015160c001515b15610d4b57818181518110610d3157610d31612a64565b60200260200101516020015184610d489190612a90565b93505b600101610ccb565b5050600101610be7565b5092915050565b610d6c611c8f565b6001600160a01b038216610dc25760405162461bcd60e51b815260206004820152601e60248201527f43616e6e6f74207265636f76657220746f207a65726f206164647265737300006044820152606401610757565b610dd66001600160a01b0384168383611d0e565b505050565b60606003805480602002602001604051908101604052809291908181526020016000905b82821015610f075760008481526020908190206040805160a081018252600586029092018054835260018101546001600160a01b0316838501526002810180548351818702810187018552818152949592949386019392830182828015610e8557602002820191906000526020600020905b815481526020019060010190808311610e71575b5050505050815260200160038201805480602002602001604051908101604052809291908181526020018280548015610edd57602002820191906000526020600020905b815481526020019060010190808311610ec9575b50505091835250506004919091015460ff1615156020918201529082526001929092019101610dff565b50505050905090565b610f18611c8f565b6107316000611d6d565b610f2a611c8f565b610731611dbd565b610f3a611c8f565b600480546001600160a01b0319166001600160a01b0392909216919091179055565b610f64611c8f565b6003548210610fab5760405162461bcd60e51b8152602060048201526013602482015272141bdbdb08191bd95cc81b9bdd08195e1a5cdd606a1b6044820152606401610757565b600060038381548110610fc057610fc0612a64565b9060005260206000209060050201905081518160020180549050146110385760405162461bcd60e51b815260206004820152602860248201527f4d69736d617463686564206c6f636b20706572696f647320616e642072657761604482015267726420726174657360c01b6064820152608401610757565b815161104d9060038301906020850190612557565b50827fbda750cbf366482de2e4f9ae114a7cd7cf47576f6ddb09118dd445466d4139278360405161107e9190612b0e565b60405180910390a2505050565b60035482106110ac5760405162461bcd60e51b815260040161075790612aa3565b3360009081526005602052604090205481106110da5760405162461bcd60e51b815260040161075790612ae5565b6000600383815481106110ef576110ef612a64565b60009182526020918290206040805160a08101825260059093029091018054835260018101546001600160a01b031683850152600281018054835181870281018701855281815294959294938601939283018282801561116e57602002820191906000526020600020905b81548152602001906001019080831161115a575b50505050508152602001600382018054806020026020016040519081016040528092919081815260200182805480156111c657602002820191906000526020600020905b8154815260200190600101908083116111b2575b50505091835250506004919091015460ff161515602090910152905060006111ee338461174b565b90506000806111fd3386611dfa565b91509150801561124f5760405162461bcd60e51b815260206004820152601860248201527f4c6f636b20706572696f64206e6f7420796574206f76657200000000000000006044820152606401610757565b600480546040516340c10f1960e01b81523392810192909252602482018590526001600160a01b0316906340c10f1990604401600060405180830381600087803b15801561129c57600080fd5b505af11580156112b0573d6000803e3d6000fd5b50505060208501516112cd91506001600160a01b03163384611d0e565b33600090815260066020526040812080548592906112ec908490612a90565b909155505033600090815260056020526040812080548790811061131257611312612a64565b9060005260206000209060070201905042816004018190555086336001600160a01b03167f204fccf0d92ed8d48f204adb39b2e81e92bad0dedb93f5716ca9478cfb57de008587604051611370929190918252602082015260400190565b60405180910390a350505050505050565b6113896120e9565b60035483106113aa5760405162461bcd60e51b815260040161075790612aa3565b6000600384815481106113bf576113bf612a64565b60009182526020918290206040805160a08101825260059093029091018054835260018101546001600160a01b031683850152600281018054835181870281018701855281815294959294938601939283018282801561143e57602002820191906000526020600020905b81548152602001906001019080831161142a575b505050505081526020016003820180548060200260200160405190810160405280929190818152602001828054801561149657602002820191906000526020600020905b815481526020019060010190808311611482575b50505091835250506004919091015460ff16151560209091015260808101519091506114f95760405162461bcd60e51b8152602060048201526012602482015271506f6f6c206973206e6f742061637469766560701b6044820152606401610757565b6000611505858461210d565b90506000811161154d5760405162461bcd60e51b8152602060048201526013602482015272125b9d985b1a59081b1bd8dac81c195c9a5bd9606a1b6044820152606401610757565b6020820151611567906001600160a01b03163330876121a4565b611573338686866121e3565b6040805185815260208101859052869133917fb4caaf29adda3eefee3ad552a8e85058589bf834c7466cae4ee58787f70589ed910160405180910390a35050505050565b600560205281600052604060002081815481106115d357600080fd5b600091825260209091206007909102018054600182015460028301546003840154600485015460058601546006909601549497509295509093909260ff1687565b6003818154811061162457600080fd5b60009182526020909120600590910201805460018201546004909201549092506001600160a01b039091169060ff1683565b6007818154811061166657600080fd5b6000918252602090912001546001600160a01b0316905081565b611688611c8f565b60035482106116cf5760405162461bcd60e51b8152602060048201526013602482015272141bdbdb08191bd95cc81b9bdd08195e1a5cdd606a1b6044820152606401610757565b80600383815481106116e3576116e3612a64565b906000526020600020906005020160040160006101000a81548160ff021916908315150217905550817f42e14968ae1060172ac61821229b29fcbdb6c4ea07455d1610d026cff117b63e8260405161173f911515815260200190565b60405180910390a25050565b6001600160a01b03821660009081526005602052604081208054829142918391908690811061177c5761177c612a64565b600091825260208083206040805160e08101825260079094029091018054845260018101549284019290925260028201549083018190526003820154606084015260048201546080840152600582015460a0840181905260069092015460ff16151560c08401529193506117ef9161210d565b9050600081116118385760405162461bcd60e51b815260206004820152601460248201527324b73b30b634b2103637b1b5903832b934b7b21760611b6044820152606401610757565b8160c00151156118bf5760008083608001511161186857826040015183606001516118639190612b21565b61186e565b82608001515b6118789085612b21565b9050826040015161271061188c9190612b34565b8183856020015161189d9190612b34565b6118a79190612b34565b6118b19190612b4b565b6118bb9086612a90565b9450505b5091925050505b92915050565b6118d4611c8f565b60005b600754811015611a2a5760005b60056000600784815481106118fb576118fb612a64565b60009182526020808320909101546001600160a01b03168352820192909252604001902054811015611a21576000600560006007858154811061194057611940612a64565b60009182526020808320909101546001600160a01b03168352820192909252604001902080548390811061197657611976612a64565b60009182526020909120600790910201600681015490915060ff1615611a185760068101805460ff19169055426003820155805460078054859081106119be576119be612a64565b600091825260209182902001546001840154600585015460408051928352938201526001600160a01b03909116917f5245d528087a96a64f4589a764f00061e4671eab90cb1e019b1a5b24b2e4c2a8910160405180910390a35b506001016118e4565b506001016118d7565b50565b611a35611c8f565b6001600160a01b038516611a8b5760405162461bcd60e51b815260206004820152601d60248201527f496e76616c6964207374616b696e6720746f6b656e20616464726573730000006044820152606401610757565b828114611ae45760405162461bcd60e51b815260206004820152602160248201527f4d69736d617463686564206c6f636b20706572696f647320616e6420726174656044820152607360f81b6064820152608401610757565b6000600380549050905060036040518060a00160405280838152602001886001600160a01b031681526020018787808060200260200160405190810160405280939291908181526020018383602002808284376000920191909152505050908252506040805160208781028281018201909352878252928301929091889188918291850190849080828437600092018290525093855250506001602093840181905285548082018755958352918390208451600590960201948555508282015190840180546001600160a01b0319166001600160a01b0390921691909117905560408201518051929392611bde9260028501920190612557565b5060608201518051611bfa916003840191602090910190612557565b50608091909101516004909101805460ff19169115159190911790556040516001600160a01b0387169082907f1f1f6396247a5ba59b7b1e094ec3a8e439d4dace0c5ac4fe3ecfde3e68e03a8a90600090a3505050505050565b611c5c611c8f565b6001600160a01b038116611c8657604051631e4fbdf760e01b815260006004820152602401610757565b611a2a81611d6d565b6000546001600160a01b031633146107315760405163118cdaa760e01b8152336004820152602401610757565b611cc46124c3565b6002805460ff191690557f5db9ee0a495bf2e6ff9c91a7834c1ba4fdd244a5e8aa4e537bd38aeae4b073aa335b6040516001600160a01b03909116815260200160405180910390a1565b6040516001600160a01b03838116602483015260448201839052610dd691859182169063a9059cbb906064015b604051602081830303815290604052915060e01b6020820180516001600160e01b0383818316178352505050506124e6565b600080546001600160a01b038381166001600160a01b0319831681178455604051919092169283917f8be0079c531659141344cd1fd0a4f28419497f9722a3daafe3b4186f6b6457e09190a35050565b611dc56120e9565b6002805460ff191660011790557f62e78cea01bee320cd4e420270b5ea74000d11b0c9f74754ebdbfc544b05a258611cf13390565b6000806001600160a01b038416611e4a5760405162461bcd60e51b8152602060048201526014602482015273496e76616c69642075736572206164647265737360601b6044820152606401610757565b6001600160a01b0384166000908152600560205260409020548310611e815760405162461bcd60e51b815260040161075790612ae5565b6001600160a01b0384166000908152600560205260408120805485908110611eab57611eab612a64565b906000526020600020906007020190508060030154421015611f065760405162461bcd60e51b81526020600482015260146024820152732637b1b5903832b934b7b2103737ba1037bb32b960611b6044820152606401610757565b600681015460ff16611f525760405162461bcd60e51b8152602060048201526015602482015274131bd8dac8185b1c9958591e481d5b9b1bd8dad959605a1b6044820152606401610757565b60068101805460ff191690556001600160a01b03851660009081526005602052604081205490036120795760005b60075481101561207757856001600160a01b031660078281548110611fa757611fa7612a64565b6000918252602090912001546001600160a01b03160361206f5760078054611fd190600190612b21565b81548110611fe157611fe1612a64565b600091825260209091200154600780546001600160a01b03909216918390811061200d5761200d612a64565b9060005260206000200160006101000a8154816001600160a01b0302191690836001600160a01b03160217905550600780548061204c5761204c612b6d565b600082815260209020810160001990810180546001600160a01b03191690550190555b600101611f80565b505b83856001600160a01b03167f5245d528087a96a64f4589a764f00061e4671eab90cb1e019b1a5b24b2e4c2a8836001015484600501546040516120c6929190918252602082015260400190565b60405180910390a3600181015460069091015490925060ff1690505b9250929050565b60025460ff16156107315760405163d93c066560e01b815260040160405180910390fd5b6000806003848154811061212357612123612a64565b9060005260206000209060050201905060005b6002820154811015612199578382600201828154811061215857612158612a64565b9060005260206000200154036121915781600301818154811061217d5761217d612a64565b9060005260206000200154925050506118c6565b600101612136565b506000949350505050565b6040516001600160a01b0384811660248301528381166044830152606482018390526121dd9186918216906323b872dd90608401611d3b565b50505050565b6001600160a01b0384166122305760405162461bcd60e51b8152602060048201526014602482015273496e76616c69642075736572206164647265737360601b6044820152606401610757565b60035483106122515760405162461bcd60e51b815260040161075790612aa3565b600082116122a15760405162461bcd60e51b815260206004820181905260248201527f416d6f756e74206d7573742062652067726561746572207468616e207a65726f6044820152606401610757565b600081116122ff5760405162461bcd60e51b815260206004820152602560248201527f4c6f636b20706572696f64206d7573742062652067726561746572207468616e604482015264207a65726f60d81b6064820152608401610757565b600061230b8242612a90565b6001600160a01b03861660009081526005602052604081205491925081900361237a57600780546001810182556000919091527fa66cc928b5edb82af9bd49922954155ab7b0942694bea4ce44661d9a8736c6880180546001600160a01b0319166001600160a01b0388161790555b60056000876001600160a01b03166001600160a01b031681526020019081526020016000206040518060e0016040528083815260200186815260200185815260200184815260200160008152602001878152602001600115158152509080600181540180825580915050600190039060005260206000209060070201600090919091909150600082015181600001556020820151816001015560408201518160020155606082015181600301556080820151816004015560a0820151816005015560c08201518160060160006101000a81548160ff021916908315150217905550505080866001600160a01b03167fa0b15b5afbd8adc1efc429bc38aa12b0f04d6b9b7ab93f6ec76d54603b4be0ee8686868a6040516124b3949392919093845260208401929092526040830152606082015260800190565b60405180910390a3505050505050565b60025460ff1661073157604051638dfc202b60e01b815260040160405180910390fd5b600080602060008451602086016000885af180612509576040513d6000823e3d81fd5b50506000513d9150811561252157806001141561252e565b6001600160a01b0384163b155b156121dd57604051635274afe760e01b81526001600160a01b0385166004820152602401610757565b828054828255906000526020600020908101928215612592579160200282015b82811115612592578251825591602001919060010190612577565b5061259e9291506125a2565b5090565b5b8082111561259e57600081556001016125a3565b6001600160a01b0381168114611a2a57600080fd5b6000602082840312156125de57600080fd5b81356125e9816125b7565b9392505050565b602080825282518282018190526000919060409081850190868401855b828110156126675781518051855286810151878601528581015186860152606080820151908601526080808201519086015260a0808201519086015260c09081015115159085015260e0909301929085019060010161260d565b5091979650505050505050565b60006020828403121561268657600080fd5b5035919050565b6020808252825182820181905260009190848201906040850190845b818110156126ce5783516001600160a01b0316835292840192918401916001016126a9565b50909695505050505050565b600080604083850312156126ed57600080fd5b50508035926020909101359150565b60008060006060848603121561271157600080fd5b833561271c816125b7565b9250602084013561272c816125b7565b929592945050506040919091013590565b60008151808452602080850194506020840160005b8381101561276e57815187529582019590820190600101612752565b509495945050505050565b600060208083018184528085518083526040925060408601915060408160051b87010184880160005b8381101561282157888303603f19018552815180518452878101516001600160a01b0316888501528681015160a0888601819052906127e38287018261273d565b915050606080830151868303828801526127fd838261273d565b608094850151151597909401969096525050948701949250908601906001016127a2565b509098975050505050505050565b634e487b7160e01b600052604160045260246000fd5b6000806040838503121561285857600080fd5b8235915060208084013567ffffffffffffffff8082111561287857600080fd5b818601915086601f83011261288c57600080fd5b81358181111561289e5761289e61282f565b8060051b604051601f19603f830116810181811085821117156128c3576128c361282f565b6040529182528482019250838101850191898311156128e157600080fd5b938501935b828510156128ff578435845293850193928501926128e6565b8096505050505050509250929050565b60008060006060848603121561292457600080fd5b505081359360208301359350604090920135919050565b6000806040838503121561294e57600080fd5b8235612959816125b7565b946020939093013593505050565b6000806040838503121561297a57600080fd5b823591506020830135801515811461299157600080fd5b809150509250929050565b60008083601f8401126129ae57600080fd5b50813567ffffffffffffffff8111156129c657600080fd5b6020830191508360208260051b85010111156120e257600080fd5b6000806000806000606086880312156129f957600080fd5b8535612a04816125b7565b9450602086013567ffffffffffffffff80821115612a2157600080fd5b612a2d89838a0161299c565b90965094506040880135915080821115612a4657600080fd5b50612a538882890161299c565b969995985093965092949392505050565b634e487b7160e01b600052603260045260246000fd5b634e487b7160e01b600052601160045260246000fd5b808201808211156118c6576118c6612a7a565b6020808252600f908201526e125b9d985b1a59081c1bdbdb081251608a1b604082015260600190565b600060018201612ade57612ade612a7a565b5060010190565b6020808252600f908201526e125b9d985b1a59081b1bd8dac81251608a1b604082015260600190565b6020815260006125e9602083018461273d565b818103818111156118c6576118c6612a7a565b80820281158282048414176118c6576118c6612a7a565b600082612b6857634e487b7160e01b600052601260045260246000fd5b500490565b634e487b7160e01b600052603160045260246000fdfea26469706673582212209c2fb0e23e177d640cfcaba9bed5fd11292c2e07a6334a70d79c09f98bf9e7ea64736f6c63430008160033",
  "devdoc": {
    "errors": {
      "EnforcedPause()": [
        {
          "details": "The operation failed because the contract is paused."
        }
      ],
      "ExpectedPause()": [
        {
          "details": "The operation failed because the contract is not paused."
        }
      ],
      "OwnableInvalidOwner(address)": [
        {
          "details": "The owner is not a valid owner account. (eg. `address(0)`)"
        }
      ],
      "OwnableUnauthorizedAccount(address)": [
        {
          "details": "The caller account is not authorized to perform an operation."
        }
      ],
      "ReentrancyGuardReentrantCall()": [
        {
          "details": "Unauthorized reentrant call."
        }
      ],
      "SafeERC20FailedOperation(address)": [
        {
          "details": "An operation with an ERC-20 token failed."
        }
      ]
    },
    "events": {
      "Paused(address)": {
        "details": "Emitted when the pause is triggered by `account`."
      },
      "Unpaused(address)": {
        "details": "Emitted when the pause is lifted by `account`."
      }
    },
    "kind": "dev",
    "methods": {
      "addPool(address,uint256[],uint256[])": {
        "custom:events": "Emits PoolAdded event.",
        "details": "Add a new pool for staking.",
        "params": {
          "_lockPeriods": "The array of supported lock periods for the pool.",
          "_rewardRates": "The corresponding reward rates for each lock period.",
          "_stakingToken": "The token that will be staked in the pool."
        }
      },
      "calculateRewards(address,uint256)": {
        "details": "Calculates the pending rewards for a user based on their lock.",
        "params": {
          "lockId": "The ID of the lock to calculate rewards for.",
          "user": "The address of the user."
        },
        "returns": {
          "_0": "The amount of rewards earned for the specified lock."
        }
      },
      "claimRewards(uint256,uint256)": {
        "custom:events": "Emits RewardsClaimed event.",
        "details": "Claims rewards for a specific lock without unlocking the tokens.",
        "params": {
          "lockId": "The ID of the lock the rewards are being claimed for.",
          "poolId": "The ID of the pool the rewards are being claimed from."
        }
      },
      "constructor": {
        "details": "Constructor to initialize the contract with the reward token address.",
        "params": {
          "_rewardToken": "The address of the reward token contract."
        }
      },
      "emergencyUnlockAll()": {
        "custom:events": "Emits Unlocked event for each lock that is modified.",
        "custom:requirements": "Only callable by contract owner.",
        "custom:security-note": "This is a critical function that can override normal staking mechanics.",
        "details": "Emergency function to reset the lock period for all users, allowing immediate withdrawal."
      },
      "getActiveStakedBalance(address)": {
        "details": "Returns the total amount of tokens actively staked by a user across all locks.",
        "params": {
          "user": "The address of the user to check."
        },
        "returns": {
          "totalStaked": "The total amount of tokens still in the staking contract (in wei)."
        }
      },
      "getLifetimeRewards(address)": {
        "details": "Retrieves the total rewards earned by a user.",
        "params": {
          "user": "The address of the user to check."
        },
        "returns": {
          "_0": "The total amount of rewards earned by the specified user."
        }
      },
      "getUserLocks(address)": {
        "details": "Retrieves the lock information for a specified user.",
        "params": {
          "user": "The address of the user whose locks to retrieve."
        },
        "returns": {
          "_0": "An array of LockInfo structures for the specified user."
        }
      },
      "owner()": {
        "details": "Returns the address of the current owner."
      },
      "pause()": {
        "details": "Pauses the staking functionality."
      },
      "paused()": {
        "details": "Returns true if the contract is paused, and false otherwise."
      },
      "recoverTokens(address,address,uint256)": {
        "details": "Allows the owner to recover any ERC20 tokens mistakenly sent to the contract.",
        "params": {
          "amount": "The amount of tokens to recover.",
          "to": "The address to send the recovered tokens to.",
          "tokenAddress": "The address of the ERC20 token to recover."
        }
      },
      "renounceOwnership()": {
        "details": "Leaves the contract without owner. It will not be possible to call `onlyOwner` functions. Can only be called by the current owner. NOTE: Renouncing ownership will leave the contract without an owner, thereby disabling any functionality that is only available to the owner."
      },
      "setPoolStatus(uint256,bool)": {
        "custom:events": "Emits PoolStatusUpdated event.",
        "details": "Activate or deactivate a staking pool.",
        "params": {
          "isActive": "The new status of the pool (active or inactive).",
          "poolId": "The ID of the pool to update."
        }
      },
      "stake(uint256,uint256,uint256)": {
        "custom:events": "Emits Staked event.",
        "details": "Stake tokens in a specific pool with a lock period.",
        "params": {
          "_amount": "The amount of tokens to stake.",
          "_lockPeriod": "The duration for which the tokens will be locked.",
          "poolId": "The ID of the pool to stake in."
        }
      },
      "transferOwnership(address)": {
        "details": "Transfers ownership of the contract to a new account (`newOwner`). Can only be called by the current owner."
      },
      "unpause()": {
        "details": "Unpauses the staking functionality."
      },
      "unstake(uint256,uint256)": {
        "details": "Unstake tokens and claim rewards for a specific lock.",
        "params": {
          "lockId": "The ID of the lock to unlock.",
          "poolId": "The ID of the pool to unstake from."
        }
      },
      "updateRewardRates(uint256,uint256[])": {
        "custom:events": "Emits RewardRatesUpdated event.",
        "details": "Update the reward rates for a specific pool.",
        "params": {
          "newRewardRates": "The new reward rates corresponding to the existing lock periods.",
          "poolId": "The ID of the pool to update."
        }
      }
    },
    "version": 1
  },
  "userdoc": {
    "kind": "user",
    "methods": {
      "addPool(address,uint256[],uint256[])": {
        "notice": "Only callable by the contract owner.Lock periods and reward rates must match in length."
      },
      "emergencyUnlockAll()": {
        "notice": "This function should only be used in emergency situations where users need immediate access to their funds.This is a one-way operation and cannot be reversed.This function will unlock all locked tokens across all pools.Gas costs will increase with the number of pools and locked positions."
      },
      "getActiveStakedBalance(address)": {
        "notice": "Counts tokens in both active locks and unlocked-but-not-withdrawn positions."
      },
      "pause()": {
        "notice": "Only callable by the contract owner."
      },
      "recoverTokens(address,address,uint256)": {
        "notice": "Only callable by the contract owner."
      },
      "setPoolStatus(uint256,bool)": {
        "notice": "Only callable by the contract owner."
      },
      "stake(uint256,uint256,uint256)": {
        "notice": "This function can be paused by the contract owner in case of emergencies."
      },
      "unpause()": {
        "notice": "Only callable by the contract owner."
      },
      "updateRewardRates(uint256,uint256[])": {
        "notice": "Only callable by the contract owner.Reward rates must match the number of lock periods."
      }
    },
    "version": 1
  },
  "storageLayout": {
    "storage": [
      {
        "astId": 3128,
        "contract": "contracts/StakingVault.sol:StakingVault",
        "label": "_owner",
        "offset": 0,
        "slot": "0",
        "type": "t_address"
      },
      {
        "astId": 5185,
        "contract": "contracts/StakingVault.sol:StakingVault",
        "label": "_status",
        "offset": 0,
        "slot": "1",
        "type": "t_uint256"
      },
      {
        "astId": 5066,
        "contract": "contracts/StakingVault.sol:StakingVault",
        "label": "_paused",
        "offset": 0,
        "slot": "2",
        "type": "t_bool"
      },
      {
        "astId": 12783,
        "contract": "contracts/StakingVault.sol:StakingVault",
        "label": "pools",
        "offset": 0,
        "slot": "3",
        "type": "t_array(t_struct(Pool)12764_storage)dyn_storage"
      },
      {
        "astId": 12786,
        "contract": "contracts/StakingVault.sol:StakingVault",
        "label": "rewardToken",
        "offset": 0,
        "slot": "4",
        "type": "t_contract(RewardToken)11687"
      },
      {
        "astId": 12792,
        "contract": "contracts/StakingVault.sol:StakingVault",
        "label": "userLocks",
        "offset": 0,
        "slot": "5",
        "type": "t_mapping(t_address,t_array(t_struct(LockInfo)12779_storage)dyn_storage)"
      },
      {
        "astId": 12796,
        "contract": "contracts/StakingVault.sol:StakingVault",
        "label": "lifetimeRewards",
        "offset": 0,
        "slot": "6",
        "type": "t_mapping(t_address,t_uint256)"
      },
      {
        "astId": 12799,
        "contract": "contracts/StakingVault.sol:StakingVault",
        "label": "lockedUsers",
        "offset": 0,
        "slot": "7",
        "type": "t_array(t_address)dyn_storage"
      }
    ],
    "types": {
      "t_address": {
        "encoding": "inplace",
        "label": "address",
        "numberOfBytes": "20"
      },
      "t_array(t_address)dyn_storage": {
        "base": "t_address",
        "encoding": "dynamic_array",
        "label": "address[]",
        "numberOfBytes": "32"
      },
      "t_array(t_struct(LockInfo)12779_storage)dyn_storage": {
        "base": "t_struct(LockInfo)12779_storage",
        "encoding": "dynamic_array",
        "label": "struct StakingVault.LockInfo[]",
        "numberOfBytes": "32"
      },
      "t_array(t_struct(Pool)12764_storage)dyn_storage": {
        "base": "t_struct(Pool)12764_storage",
        "encoding": "dynamic_array",
        "label": "struct StakingVault.Pool[]",
        "numberOfBytes": "32"
      },
      "t_array(t_uint256)dyn_storage": {
        "base": "t_uint256",
        "encoding": "dynamic_array",
        "label": "uint256[]",
        "numberOfBytes": "32"
      },
      "t_bool": {
        "encoding": "inplace",
        "label": "bool",
        "numberOfBytes": "1"
      },
      "t_contract(IERC20)4221": {
        "encoding": "inplace",
        "label": "contract IERC20",
        "numberOfBytes": "20"
      },
      "t_contract(RewardToken)11687": {
        "encoding": "inplace",
        "label": "contract RewardToken",
        "numberOfBytes": "20"
      },
      "t_mapping(t_address,t_array(t_struct(LockInfo)12779_storage)dyn_storage)": {
        "encoding": "mapping",
        "key": "t_address",
        "label": "mapping(address => struct StakingVault.LockInfo[])",
        "numberOfBytes": "32",
        "value": "t_array(t_struct(LockInfo)12779_storage)dyn_storage"
      },
      "t_mapping(t_address,t_uint256)": {
        "encoding": "mapping",
        "key": "t_address",
        "label": "mapping(address => uint256)",
        "numberOfBytes": "32",
        "value": "t_uint256"
      },
      "t_struct(LockInfo)12779_storage": {
        "encoding": "inplace",
        "label": "struct StakingVault.LockInfo",
        "members": [
          {
            "astId": 12766,
            "contract": "contracts/StakingVault.sol:StakingVault",
            "label": "lockId",
            "offset": 0,
            "slot": "0",
            "type": "t_uint256"
          },
          {
            "astId": 12768,
            "contract": "contracts/StakingVault.sol:StakingVault",
            "label": "amount",
            "offset": 0,
            "slot": "1",
            "type": "t_uint256"
          },
          {
            "astId": 12770,
            "contract": "contracts/StakingVault.sol:StakingVault",
            "label": "lockPeriod",
            "offset": 0,
            "slot": "2",
            "type": "t_uint256"
          },
          {
            "astId": 12772,
            "contract": "contracts/StakingVault.sol:StakingVault",
            "label": "unlockTime",
            "offset": 0,
            "slot": "3",
            "type": "t_uint256"
          },
          {
            "astId": 12774,
            "contract": "contracts/StakingVault.sol:StakingVault",
            "label": "lastClaimTime",
            "offset": 0,
            "slot": "4",
            "type": "t_uint256"
          },
          {
            "astId": 12776,
            "contract": "contracts/StakingVault.sol:StakingVault",
            "label": "poolId",
            "offset": 0,
            "slot": "5",
            "type": "t_uint256"
          },
          {
            "astId": 12778,
            "contract": "contracts/StakingVault.sol:StakingVault",
            "label": "isLocked",
            "offset": 0,
            "slot": "6",
            "type": "t_bool"
          }
        ],
        "numberOfBytes": "224"
      },
      "t_struct(Pool)12764_storage": {
        "encoding": "inplace",
        "label": "struct StakingVault.Pool",
        "members": [
          {
            "astId": 12752,
            "contract": "contracts/StakingVault.sol:StakingVault",
            "label": "poolId",
            "offset": 0,
            "slot": "0",
            "type": "t_uint256"
          },
          {
            "astId": 12755,
            "contract": "contracts/StakingVault.sol:StakingVault",
            "label": "stakingToken",
            "offset": 0,
            "slot": "1",
            "type": "t_contract(IERC20)4221"
          },
          {
            "astId": 12758,
            "contract": "contracts/StakingVault.sol:StakingVault",
            "label": "lockPeriods",
            "offset": 0,
            "slot": "2",
            "type": "t_array(t_uint256)dyn_storage"
          },
          {
            "astId": 12761,
            "contract": "contracts/StakingVault.sol:StakingVault",
            "label": "rewardRates",
            "offset": 0,
            "slot": "3",
            "type": "t_array(t_uint256)dyn_storage"
          },
          {
            "astId": 12763,
            "contract": "contracts/StakingVault.sol:StakingVault",
            "label": "isActive",
            "offset": 0,
            "slot": "4",
            "type": "t_bool"
          }
        ],
        "numberOfBytes": "160"
      },
      "t_uint256": {
        "encoding": "inplace",
        "label": "uint256",
        "numberOfBytes": "32"
      }
    }
  }
}